:10400000007F00203DA60000E5A4000039A60000C6
:1040100039A6000039A6000039A6000039A6000024
:1040200000000000000000000000000039A60000B1
:1040300039A600000000000039A6000039A60000E3
:104040000000000000000000000000000000000070
:104050000000000000000000000000000000000060
:104060000000000000000000000000000000000050
:104070000000000000000000000000000000000040
:104080000000000000000000000000000000000030
:104090000000000000000000000000000000000020
:1040A0000000000000000000000000000000000010
:1040B0000000000000000000000000000000000000
:1040C00010B5054C237833B9044B13B10448AFF352
:1040D00000800123237010BD300300200000000089
:1040E000984D010008B5034B1BB103490348AFF3DA
:1040F000008008BD0000000034030020984D01003E
:104100000144002301F8013C2C2281420BD090F99C
:10411000003043B13B2B03D00D2B01D00A2B00D133
:1041200002700130F1E7704710B58B68044608F063
:1041300075FB204610BDFFFF10B5064C002321463D
:10414000402208F02DFB20464021BDE81040FFF73B
:10415000D7BF00BF46000020044B0022DA701A715E
:104160005A719A71DA711A72704700BF56030020B3
:1041700038B5134C0546002308464022A11D657042
:1041800008F00EFB4021A01DFFF7BAFF35B1052353
:1041900023700023E3702371FFF7DEFF09490A480B
:1041A00008F01BF90949084808F030F9084909489E
:1041B00008F013F905490748BDE8384008F026B96A
:1041C0000000002033460100A40900200600002062
:1041D000384601000415002030B51C4B1A7D85B00F
:1041E00062B11B4901A808F0C9F901A90120FFF734
:1041F000BFFF01A808F077F905B030BD5D7D35B18E
:10420000144901A808F0BAF901A90220EFE7124CFD
:10421000A37833B9114901A808F0B0F901A9032026
:10422000E5E73F220E496570A01D0DF0FCF8012363
:104230000C4984F8455001A82370E570257108F0F9
:104240009DF901A8FFF778FFD3E700BFB403002072
:10425000FA4401000E450100000000202245010043
:104260003B4501003E45010038B5054B04460D466F
:10427000185C81F0010108F0BFFB024B1D5538BDF1
:10428000904601004C03002038B5054D0024295DFF
:1042900020460134FFF7E8FF092CF8D138BD00BFF4
:1042A000560300200023044A194699540133092B70
:1042B000FBD1FFF7E9BF00BF5603002008B508F0A7
:1042C000A7FBB0FA80F0400908BD38B50C250024E2
:1042D000102007F035FE013D0444FA2008F09AFC56
:1042E00015F0FF05F4D10C20B4FBF0F080B238BD1E
:1042F0001D4B1A7BD3ED046AE2B15A7BD2B1198906
:104300005A89914216D0521A93ED000A93ED016A30
:1043100007EE102A36EE406AB8EEC77A401AC6EEAB
:10432000075A07EE900AF8EEE77AA7EEA50A30EEF4
:10433000260A704707EE900AF8EE677AB1EE047A23
:1043400067EE877A9FED096A87EE867AF0EE047A47
:1043500077EEC77A9FED067A87EE870AF1EE0C7A40
:1043600030EE270AE3E700BFB800002000C07F441A
:10437000EC51383E08B5FFF7A8FF0C4B1880FFF74B
:10438000B7FFB5EEC00AF1EE10FA0CD4F2EE0C7ADB
:10439000B4EE670AF1EE10FAC8BFB0EE670A044B3C
:1043A00083ED000A08BD9FED030AF8E7B003002083
:1043B000B40300200000000070B52DED028B044610
:1043C00008F070FC294A05462CB9136840F6C31161
:1043D000C31A8B4246D9264E156000240021304670
:1043E00001F09AFB002211463046B0EE408A01F0FF
:1043F000F7FAB4EE400AF1EE10FA25D7B4EE488A87
:10440000F1EE10FA28D7022C02D0192008F006FC91
:104410000134E4B2032CE1D1164B00221A70164A83
:10442000136842F20F71EB1A8B421BD913491448DF
:10443000156007F0D2FFBDEC028B0A220C21104858
:10444000BDE8704008F045B80E4BB4EE488AF1EE76
:1044500010FA83ED030A02D60A4B83ED048A054B5A
:1044600001221A70BDEC028B70BD00BF94030020C6
:1044700060030020740300209803002068450100B9
:1044800004150020B403002010B50E20FFF716FF1E
:10449000064C20750F20FFF711FF6075FFF76AFFCC
:1044A0000020BDE81040FFF787BF00BFB403002025
:1044B000037A10B573B18C79C9798C420AD08278AD
:1044C00006D2944208D8914294BF0023012301E010
:1044D0009442F8D8184610BD0023FBE708B5044BFA
:1044E0000022DA7008F0DEFB024B186008BD00BF46
:1044F00056030020A003002002281FB5204B0FD137
:104500009C786CB91F4901A808F038F8032001A96C
:10451000FFF72EFE01A807F0E6FF204604B010BD0D
:10452000811E4A42A0F104044A41DA7062426241AB
:10453000441E18701A71E3B2012B01D9052803D16A
:10454000FFF7B0FEFFF7CAFF042C0ED8DFE804F037
:1045500013030F1115000C4901A808F00FF801A86A
:10456000FFF7EAFD01A807F0BEFF0124D5E70749E0
:10457000F2E70749F0E70749EEE70749ECE700BF34
:1045800000000020DA450100F74501000146010066
:104590000D4601001E4601002846010030B585B0D9
:1045A0000D46014601A808F03AF801A808F056F9AE
:1045B000434901A808F0C1F840B1424B1D700124E5
:1045C00001A807F090FF204605B030BD3E4901A884
:1045D00008F0B3F80028F0D13C4901A808F0ADF884
:1045E00000284FD13A4901A808F0A7F8002849D17E
:1045F000384901A808F0A1F8002846D1364901A899
:1046000008F09BF8002840D1344901A808F095F83B
:1046100000283DD1324901A808F08FF8002837D191
:10462000304901A808F089F8002834D12E4901A8A2
:1046300008F083F800282ED12C4901A808F07DF855
:1046400060BB2B4901A808F078F838BB294901A8BC
:1046500008F073F828BB284901A808F06EF800BBE1
:10466000264901A808F069F8F0B9254901A808F021
:1046700064F8C8B9234901A808F05FF8B8B1114B34
:104680001D729CE70F4B5D7099E70E4B9D7096E78E
:104690000C4BDD7093E70B4B1D7190E7094B5D717F
:1046A0008DE7084B9D718AE7064BDD7187E7164958
:1046B00001A808F042F804460028E0D180E700BFD6
:1046C0009044010056030020944401000E44010070
:1046D0009A440100A4440100A8440100B24401002E
:1046E000B6440100C4440100C8440100D0440100A4
:1046F000D3440100DA440100DD440100E444010038
:10470000E8440100EE440100F244010038B50A4CCF
:104710000A490546204607F060FE2046084C294617
:1047200007F06AFE0749204607F057FE2946204653
:10473000BDE8384007F060BEA4090020C445010070
:1047400004150020C945010038B50A4C0A49054640
:10475000204607F042FE2046084C294607F04CFE52
:104760000749204607F039FE29462046BDE8384073
:1047700007F042BEA4090020CF4501000415002027
:10478000D445010030B52DED028BA4498BB0044611
:1047900007F0D3FF90B1A14907A807F0EFFE07A8E3
:1047A000FFF7B4FF07A807F09EFE9D4907A807F092
:1047B000E5FE07A8FFF7C0FC07A860E0994907A835
:1047C00007F0DCFE07A9204607F0E1FF054607A831
:1047D00007F089FE002D00F0B7810422214604A8CD
:1047E000FFF7A2FC904907A807F0C8FE07A904A894
:1047F00007F0CDFF044607A807F075FE002C41D056
:1048000089480CF0F6FD04A9024607A8FFF78CFCC6
:1048100007A808F069F807A8B0EE408A07F063FE21
:10482000B5EEC08AF1EE10FA06D9F2EE0C7AB4EECB
:10483000E78AF1EE10FA07DB7C4907A807F09EFE35
:1048400007A8FFF781FF16E0794B7A49D3ED017A8B
:1048500083ED008AB4EEE78AF1EE10FAA2BF9FED75
:10486000760A38EE008A83ED018A07A807F086FEF3
:1048700007A8FFF74BFF07A807F035FE04A807F0CD
:1048800032FEB6E16D4907A807F078FE07A904A833
:1048900007F07DFF044607A807F025FE5CB36748D4
:1048A0000CF0A7FD04A9024607A8FFF73DFC07A8E6
:1048B00008F01AF807A8B0EE408A07F014FEB5EE2B
:1048C000C08AF1EE10FA06D9F2EE0C7AB4EEE78A5D
:1048D000F1EE10FA01DB5A49AFE7554BD3ED007A00
:1048E00083ED018AB4EEE78AF1EE10FA01D855495A
:1048F000A3E75549B9E7554904A807F01EFF98B149
:10490000FFF738FD524A4A4B12881A815149012259
:1049100007A81A7307F032FE07A8FFF70DFC07A8D7
:1049200007F0E1FD4C49A0E74C4904A807F005FF5A
:1049300098B1FFF71FFD464A3D4B12885A814849FE
:10494000012207A85A7307F019FE07A8FFF7F4FB26
:1049500007A807F0C8FD434987E7434907A807F0C0
:104960000DFE07A904A807F012FF044607A807F0E8
:10497000BAFD94B13C480CF03CFD04A9024607A8DE
:10498000FFF7D2FB07A807F0AFFF294B07A883ED7D
:10499000040A07F0A8FD354967E7354907A807F07D
:1049A000EDFD07A904A807F0F2FE044607A807F0EA
:1049B0009AFD94B12E480CF01CFD04A9024607A8EC
:1049C000FFF7B2FB07A807F08FFF2A4B07A883ED7C
:1049D000000A07F088FD284947E7284907A807F09B
:1049E000CDFD07A904A807F0D2FE044607A807F0EA
:1049F0007AFD002C48D021480CF0FBFC04A90246AB
:104A000007A8FFF791FB07A807F06EFF1C4B07A84C
:104A100083ED000A07F067FD1A4926E72E420100E0
:104A20003A420100554201005A420100634201002E
:104A3000B800002078420100CDCCCC3D844201007A
:104A40008D420100A2420100BA420100D842010099
:104A5000B0030020C6420100D4420100F64201002A
:104A6000E4420100F2420100024301000D43010053
:104A70001B4301007803002026430100344301005A
:104A8000D00300203F430100A34907A807F076FDAB
:104A900007A904A807F07BFE044607A807F023FD3A
:104AA00094B19D480CF0A5FC04A9024607A8FFF7A5
:104AB0003BFB07A807F018FF984B07A883ED000AF7
:104AC00007F011FD9649D0E6964907A807F056FD74
:104AD00007A904A807F05BFE044607A807F003FD3A
:104AE00094B190480CF085FC04A9024607A8FFF792
:104AF0001BFB07A807F0F8FE8B4B07A883ED000A05
:104B000007F0F1FC8949B0E6894904A807F015FED1
:104B1000C0B1884B1A7B0AB15A7B0AB986498CE628
:104B20001A895B899A4201D1844986E6844907A89B
:104B300007F024FD07A8FFF7FFFA07A807F0D3FC4A
:104B4000804992E6804978E6804907A807F016FD7B
:104B500007A9204607F01BFE054607A807F0C3FC7F
:104B6000002D4AD079480CF044FC2146024607A8A3
:104B7000FFF7DAFA07A807F0A6FE044607A807F031
:104B8000B2FC042C07D9724907A807F0F7FC07A864
:104B9000FFF7DAFD10E66F4B5C71FFF79FFC6E4983
:104BA00007A807F0EBFC0A22214604A807F016FD2F
:104BB00004A907A807F0A8FDFFF7BEFA04A807F0AC
:104BC00092FC07A807F08FFC604907A807F0D6FC05
:104BD0000A22214604A807F001FD04A907A807F04E
:104BE00093FDFFF793FD04A807F07DFC07A807F0ED
:104BF0007AFC0BB0BDEC028B30BD584907A807F01A
:104C0000BDFC07A9204607F0C2FD054607A807F02E
:104C10006AFC002D3CD051480CF0EBFB21460246CB
:104C200004A8FFF781FA4E4904A807F086FD98B161
:104C30000220FFF761FC00283FF420AE474907A897
:104C400007F09CFC04A907A807F05EFDFFF75EFDD6
:104C500007A807F048FC11E6424904A807F06DFDDB
:104C600008B10320E5E7404904A807F066FD58B9FC
:104C70003E4904A807F061FD30B93D4904A807F09A
:104C80005CFD18B93B49D8E50420D2E70120D0E704
:104C9000394907A807F072FC07A9204607F077FDFD
:104CA000054607A807F01FFC002D00F09680294B51
:104CB0001B78033B012B01D9304965E704223A21D7
:104CC000204607F085FD051E01DA2D495CE7042228
:104CD0002B460DEB0200214607F0A0FD6A1C214681
:104CE00004A8FFF721FA274904A807F026FD01468A
:104CF00001A8FFF753FC002848D1234907A807F073
:104D00003DFC07A8FFF720FD07A807F0ECFB04A86F
:104D100007F0E9FB01A8B2E54D430100CC030020F8
:104D200058430100664301008C03002071430100D9
:104D3000C5430100B80000207F43010095430100F6
:104D4000A9430100C1430100CE430100E243010039
:104D5000ED43010000000020FB430100024401007C
:104D6000FC450100064601000C440100124601000A
:104D700023460100124401001F44010024440100A5
:104D80003D440100E24201004C440100144907A8DF
:104D900007F0F4FB01A907A807F0B6FC114907F0DA
:104DA000BFFC04A907F0B0FCFFF7C6F907A807F09D
:104DB0009AFB0D4907A807F0E1FB01A907A807F036
:104DC000A3FC0A4907F0ACFC04A907F09DFCFFF71F
:104DD0009DFC07A807F087FB99E70549D4E600BFCB
:104DE0005B440100E84101001F44010061420100F1
:104DF00060440100F0B52DED048B04468BB007F044
:104E000051FFBA4A2CB91368C31AB3F57A7FC0F0C0
:104E1000E2811060B649B74C01A807F0AFFB4FF430
:104E2000807101A807F07EFBB34B94ED029AD3ED9D
:104E3000007AB24BD4ED038A94ED048A39EE279AB6
:104E4000D3ED007AAE4B78EEA78AD3ED007A38EE38
:104E5000278AB5EEC08AF1EE10FA00F1C081DFEDCD
:104E6000A97AB4EE678AF1EE10FAC8BFB0EE678A8D
:104E7000A549A64FA64EA74D01A807F035FCA649A7
:104E800007A807F07BFB94ED000A022104A807F0B5
:104E9000DAFB04A907A807F037FC014601A807F0D0
:104EA00012FC04A807F01FFB07A807F01CFB9B4996
:104EB00007A807F063FB9A4B0A22198804A807F099
:104EC0008DFB04A907A807F01FFC014601A807F005
:104ED000FAFB04A807F007FB07A807F004FB9149B9
:104EE00007A807F04BFB0A22A18804A807F076FB6D
:104EF00004A907A807F008FC014601A807F0E3FB96
:104F000004A807F0F0FA07A807F0EDFA864907A809
:104F100007F034FBB0EE490A012104A807F093FB27
:104F200004A907A807F0F0FB014601A807F0CBFB96
:104F300004A807F0D8FA07A807F0D5FA7B4907A814
:104F400007F01CFBB0EE680A012104A807F07BFB08
:104F500004A907A807F0D8FB014601A807F0B3FB96
:104F600004A807F0C0FA07A807F0BDFA704907A81F
:104F700007F004FBB0EE480A012104A807F063FB28
:104F800004A907A807F0C0FB014601A807F09BFB96
:104F900004A807F0A8FA07A807F0A5FA654907A82A
:104FA00007F0ECFA0A22217D04A807F017FB04A9F8
:104FB00007A807F0A9FB014601A807F084FB04A895
:104FC00007F091FA07A807F08EFA5B4907A807F0E7
:104FD000D5FA0A22617D04A807F000FB04A907A8FE
:104FE00007F092FB014601A807F06DFB04A807F04B
:104FF0007AFA07A807F077FA0024394601A807F0E3
:1050000073FB56F8241001A807F06EFB294601A88F
:1050100007F06AFB494B4A4AE15C4A4B01A8002968
:1050200014BF11461946013407F05EFB092CE4D188
:10503000454C464907A807F0A1FA0A22617904A85D
:1050400007F0BBFA04A907A807F05EFB014601A818
:1050500007F039FB04A807F046FA07A807F043FA5F
:105060003B4907A807F08AFA0A22617804A807F0EA
:10507000B5FA04A907A807F047FB014601A807F005
:1050800022FB04A807F02FFA07A807F02CFA3149F1
:1050900007A807F073FA0A22E17804A807F09EFA3D
:1050A00004A907A807F030FB014601A807F00BFB95
:1050B00004A807F018FA07A807F015FA264907A868
:1050C00007F05CFA0A22217904A807F087FA04A9FC
:1050D00007A807F019FB014601A807F0F4FA04A895
:1050E00007F001FA07A807F0FEF937E0AC0300204B
:1050F0004E490100B4030020D0030020CC0300205F
:105100008C0300200000C842C4410100F8410100A6
:1051100088000020E8410100C9410100CD410100A3
:10512000B0030020D5410100DB410100E041010056
:10513000E5410100EA410100F14101004C0300207A
:10514000E2420100C241010000000020FA410100DA
:10515000024201000A42010011420100214907A850
:1051600007F00CFA0A22A17804A807F037FA04A97C
:1051700007A807F0C9FA014601A807F0A4FA04A895
:1051800007F0B1F907A807F0AEF9174907A807F02B
:10519000F5F904F1460104A807F0F0F904A907A8FD
:1051A00007F0B2FA014601A807F08DFA04A807F04B
:1051B0009AF907A807F097F901A90C4807F01CF91C
:1051C0000B490C4807F009F901A90A4807F014F93E
:1051D00001A807F088F90BB0BDEC048BF0BD9FED82
:1051E000068A45E6194201001F420100A409002079
:1051F00025420100041500200000000070B5124B8C
:105200001A78022A17D15C79104D1148114E05EB1E
:105210000411FFF74DF9307007F044FDF2780E4BA2
:1052200024014AB12C441A68A168821A8A4202D326
:105230000022F270186070BD2C441A68E168821A6E
:105240008A42F8D30122F4E7000000204046010022
:10525000AC00002056030020A00300207FB5314E93
:10526000314D317D6A78314C00294AD00023012A22
:10527000E3706371A371E37123720AD02C4901A812
:1052800007F07CF9012001A9FEF772FF01A807F0E1
:105290002AF9727D6B78002A3BD00022227153B923
:1052A000244901A807F06AF9022001A9FEF760FF6E
:1052B00001A807F018F963797BB1A3796BB10023DA
:1052C0001D49637101A8A37107F058F9042001A9D1
:1052D000FEF74EFF01A807F006F9E3797BB1237AC8
:1052E0006BB100231549E37101A8237207F046F959
:1052F000042001A9FEF73CFF01A807F0F4F804B070
:1053000070BD012AC5D12B78052BC2D1FEF764FFF1
:10531000BFE7022BCFD12B78052BCCD1FEF75CFF5A
:10532000C9E700BFB403002000000020560300209E
:10533000FA4401000E4501008C450100A84501001A
:1053400038B50F4B5C7807F0ADFC0E4B34B91C70D0
:1053500021460B20BDE8384007F04EBB0A4D1978B6
:105360002C68002940F25232A0EB040418BF9622A8
:10537000944204D381F0010119702860E9E738BD37
:1053800000000020550300209003002008B507F01E
:1053900089FC094A1368C31AB3F5FA7F0AD3074B8D
:1053A0001060197881F0010119700D20BDE80840E6
:1053B00007F022BB08BD00BF9C0300207C03002037
:1053C0001FB51349044607F0B8F970B10120FFF783
:1053D00011FD0F4901A807F0D1F801A8FFF796F9D0
:1053E00001A807F080F804B010BD0A49204607F074
:1053F000A4F90028EAD10849204607F09EF918B11F
:10540000FEF7EAFE0449E5E72046FFF7BBF9EAE7C5
:10541000704401007B4401008644010038B501213D
:105420000D2007F0D1FA00210D2007F0E5FA012147
:105430000B2007F0C9FA00210B2007F0DDFA02214A
:105440000E2007F0C1FA02210F2007F0BDFA022159
:105450000C2007F0B9FA0021102007F0B5FA00215E
:10546000112007F0B1FA00210D2007F0ADFA074D29
:105470000024285D012107F0A7FA2046002101340D
:10548000FEF7F2FE092CF4D138BD00BF90460100B2
:1054900008B50C2106231622044800F0F7F9044948
:1054A0000448BDE8084007F069B800BF6003002069
:1054B0004E49010080030020014807F014B800BFE6
:1054C000800300202DE9F84F43480D46682101F084
:1054D0002EF80021404800F0BDFB3F4800F0AEFB35
:1054E000044628B10020287204462046BDE8F88F03
:1054F00007226821384800F0A5FB0728F2D136487A
:1055000000F0DEFB5FFA80FB334800F0D9FB5FFA66
:1055100080FA314800F0D4FB5FFA80F92E4800F0A1
:10552000CFFB2D4800F0CCFB5FFA80F82A4800F052
:10553000C7FBC6B2284800F0C3FBC6F3001C4FEA05
:105540008C0EF44406F00F0606EB4C06C0F3031C69
:10555000CBF302170CEB8C0C00F00F00CAF3021116
:10556000C9F30112C8F3011300EB4C0007EB8707E6
:105570000BF00F0B0BEB470701EB81010AF00F0A51
:1055800002EB820209F00F0903EB830308F00F0816
:10559000C0B20AEB410109EB420208EB430300F5FC
:1055A000FA6C3B2F2F706970AA70EB702E71A5F802
:1055B00006C00ED83B290CD8172A0AD8013B1E2B4F
:1055C00007D8013E0B2E04D818384B288CBF002476
:1055D00001242C7289E700BFD40300201FB50C4AB8
:1055E00010685168128901AB03C301A909481A80E8
:1055F000FFF768FF084B987030B101AB03CB074A47
:105600001B8810605160138105B05DF804FB00BF7A
:10561000B8410100B203002000000020AC000020CF
:10562000F0B52C4E2C4C2D4D87B0304606F061F96C
:1056300000284CDD304606F0BDF941B20D29F4D00A
:105640000A2931D12146684606F0E9FF294620465D
:1056500006F0EFFF684607F00DF9029B03B32049FF
:10566000204806F0BAFE69461E4806F0C5FE1E49EF
:1056700003A806F083FF03A9684607F0CCF80746A5
:1056800003A806F030FF002F0ADB3A1D694603A885
:10569000FEF74AFD03A8FFF793FE03A806F023FFD9
:1056A000684606F020FFC0E70B4807F022F8A36821
:1056B000B42BBAD92946204606F0BBFF0B4903A8F4
:1056C00006F05CFF03A8FFF73FF803A8E9E707B07F
:1056D000F0BD00BFA4090020800300204E49010056
:1056E0005045010004150020564501005B450100AE
:1056F00010B507F0D7FA0446FFF792FF0F4A136878
:10570000E31AF92B02D91460FEF7BEFE0C4A1368A7
:10571000E31AB3F57A7F02D31460FFF75FFFFFF758
:105720006DFDFFF79BFDFEF7AFFDFFF709FEFFF7ED
:105730002DFE0020BDE81040FFF75CBBA803002051
:10574000A403002030B54FF4E13185B04048404C0F
:1057500009F059FE40F6B735204609F0DFFE38B9AA
:1057600007F0A0FAA84203D80A2007F057FAF3E797
:105770004FF4E1313748384C06F074F83721374898
:1057800000F08AF84FF4966007F048FAFFF746FEFB
:10579000334800F00DFEFFF721FF0120FEF70CFE5D
:1057A000FEF772FEFEF79AFEA378002B4FF000057D
:1057B00014BF012305232370E57025713ED03F22DD
:1057C0002849A01D0BF02FFE274984F8455001A859
:1057D00006F0D4FE01A8FEF7AFFC01A806F083FE98
:1057E000C021224806F09EFE2149194806F00EFE0F
:1057F0002049174806F0F1FD0A220C21144806F052
:1058000066FE1D49124806F0E8FD1C4B154A197842
:105810001B4B0F48002914BF1146194606F0F6FD30
:1058200018490B4806F0D9FD0A220221084806F063
:1058300037FE0120FFF7DEFA05B030BD124901A89E
:1058400006F09CFE01A90320FEF792FCC5E700BF0D
:1058500004150020A409002000000020600300209F
:10586000D40300203B450100A34601008003002033
:10587000B0460100C94601005345010074030020F1
:1058800099460100D44601002245010082714BF681
:1058900080324171C260704738B504460D46407988
:1058A000022107F091F807F0FDF9A0F5FA60A06079
:1058B000657438BD70B505460E460024687907F05A
:1058C000A7F8B04206D1EB68A34204F1010203D865
:1058D0004FF0FF34204670BD1446EFE730B50D465B
:1058E000D1B0044607F0DEF93DB9A368C31AB3F599
:1058F000FA6F02D2207C51B030BD00250221A06099
:1059000025606079257107F05FF8012007F086F9BE
:105910000121607907F058F82946607907F06CF8A2
:10592000A379153B012B15D840F24C4007F072F9D2
:105930000221607907F048F8607C07F06BF972B6D5
:1059400000212046FFF7B6FF013007D10020207468
:1059500062B6D0E7142007F061F9E9E7012120469B
:10596000FFF7A8FF0130F1D0002500212046FFF706
:10597000A1FF01214DF805002046FFF79BFF0DEB2D
:1059800005030835B5F5A07F5860EED162B6002258
:105990005DF832500DEBC203691C586801D0431CFE
:1059A00002D100202074A6E7D1108542635C4FEA43
:1059B0004303DBB202F1010238BF43F00103282A9E
:1059C0006354E5D16178237822790B44A1780B44A4
:1059D000E1780B44DBB29A42E3D10120E2E7FFFF1A
:1059E0002DE9F8430D462DED028B11460446FFF7D5
:1059F00075FF00287FD0A3790B3B0B2B7BD8DFE80A
:105A000003F006407A7A7A7A7A7A7A7A6666A378A6
:105A1000E07808EE103A0106B8EE488A48BFFFEE7B
:105A2000007A00F00F0048BF37EEC88A0AF08CF900
:105A300033A3D3E900230AF0F1F9064618EE100A61
:105A40000F460AF093F90B460246394630460AF0F3
:105A50002FF80AF0B3FC03466DB10AF087F92CA3C6
:105A6000D3E900230AF0DAF9274B00220AF020F8E4
:105A70000AF0A4FC0346BDEC028B00EE103ABDE830
:105A8000F883E078A67800F00F000AF05DF91CA317
:105A9000D3E900230AF0C2F907EE906AF8EE677ABC
:105AA000804617EE900A89460AF060F902460B46D6
:105AB0004046494609F0FCFF0AF080FC32060346E6
:105AC00048BF80F00043002DD5D01846C5E7A67822
:105AD000E378300200F4FE40184307EE900AF8EE37
:105AE000E77A17EE900A0AF041F905A3D3E90023FB
:105AF0000AF094F9E0E7054BBDE700BFAFF3008083
:105B00009A9999999999B93F000040400000C07F47
:105B1000CDCCCCCCCCCCFC3FD0B50446FFF7DEFEE0
:105B2000002834D0A3790B3B0B2B30D8DFE803F0EF
:105B300006062F2F2F2F2F2F2F2F1E1E60780AF0D3
:105B400003F916A3D3E900230AF068F90646207882
:105B50000F460AF0F9F802460B463046394609F07E
:105B6000A7FF0AF02BFC00EE100AD0BD208840BA37
:105B700080B207EE900AF8EEE77A17EE900A0AF084
:105B8000F5F806A3D3E900230AF048F9E9E702484B
:105B9000E9E700BFAFF300800000C07F9A999999B0
:105BA0009999B93F002070474309012200F01F0076
:105BB00002FA00F02033044A42F82300BFF34F8F6B
:105BC000BFF36F8F704700BF00E100E003681B78F0
:105BD000092B0BD80A4A52F823303BB11A7F2AB15D
:105BE0000279012A03D1032283F82E207047022A6A
:105BF00001D10122F8E7032AF8D10222F4E700BF1D
:105C00002808002003681B78022B0BD80A4A52F898
:105C100023303BB11A7F2AB10279012A03D1032232
:105C200083F82E207047022A01D10122F8E7032AC7
:105C3000F8D10222F4E700BF1C080020036801210C
:105C40001B6B184710B403689C6B0123A4465DF8D6
:105C5000044B604707B5037F8DF8071063B1437F9E
:105C6000C3B190F82C309BB1D0F83834FE2B07D953
:105C7000012380F82D304360002003B05DF804FB61
:105C8000C2189DF8071082F833120133C0F8383477
:105C90000120F2E7D0F82831002BF9D001220DF1D4
:105CA0000701A4309847F3E7C0F840147047C0F8E4
:105CB0004414704790F83C34D0F83404C01A70474C
:105CC00090F83C34D0F834148B4202463FBFC118E0
:105CD000013391F8320382F83C3428BF4FF0FF3093
:105CE000704790F83C34D0F8342493423ABFC0183F
:105CF00090F832034FF0FF30704790F82E30022BAF
:105D000003D090F82E30032BF7D1704738B5037FBE
:105D10000446CBB1437F4BB3D0F81C31A3B190F90B
:105D20008B00FFF741FF94F98A00FFF73DFF94F9DC
:105D30008C00FFF739FF94F98D00FFF735FFD4F899
:105D40001C3104F13C009847A369154D102235F829
:105D50003310002002F0B4F96369102235F83310D3
:105D6000002002F0ADF90023237738BDD0F83031A0
:105D7000002BE9D090F9E500FFF716FF94F9E40055
:105D8000FFF712FF94F9E600FFF70EFF94F9E70022
:105D9000FFF70AFFD4F8303104F1A400D3E700BFC5
:105DA000E0470100F8B5037F04460D46164693B15F
:105DB000437F4BB18F18BD420BD0236815F8011BF0
:105DC0001B6820469847F6E7D0F828310BB1A4307D
:105DD00098473046F8BD1E46FBE7FFFF38B5037F06
:105DE00004460D4633B1437F23B1D0F81C310BB1CB
:105DF0003C309847637FDBB1294BC4F880501A6A66
:105E000094F824305BB327490F23002284F8333001
:105E10008D424FF0010384F8312084F8343015D1DD
:105E20000E2384F83030FF2384F8323084F82F209A
:105E3000237F53B1D4F800313BB104F17C0104F16C
:105E40003C00984708B10023237738BD022284F82C
:105E50003020CC2284F8322084F82F30E8E7124B2F
:105E60001B68C2F302618B400E49C2F302328D42BD
:105E700023FA02F30D4AB3FBF2F303F1FF3208D029
:105E80000B4B9D42D4D141F20F03238784F8372076
:105E9000CEE741F61A320133228784F83730C7E75C
:105EA00000E00140A086010028090020006CDC020F
:105EB000801A060017B4D0F8243101914BB1016962
:105EC000019A00F59A742144A43003B05DF8044BA4
:105ED0001847012003B05DF8044B70477FB5436855
:105EE000019303681A78022A46D81A783B4B53F874
:105EF0002240002C40D0237F002B3DD0037A012B81
:105F000003D1032384F82E3036E0022B1DD1012368
:105F100084F82E30019E04F59A753246294604F223
:105F200032300AF0A3FC0021C4F83464216184F803
:105F30003C14FF2228460AF0BDFCD4F84034DBB103
:105F4000019804B0BDE870401847032B01D102232B
:105F5000D8E7042B12D184F82E302369019A134418
:105F6000FE2B2DD801212046FFF7A4FF0290029BB3
:105F700013B923690133236104B070BD052B09D126
:105F800084F82E30D4F84434002BF5D004B0BDE8AA
:105F900070401847062B18D1042384F82E3023694B
:105FA000019A1344FE2B0BD801992046FFF782FF7C
:105FB0000390039B002BDFD1019A23691344DAE796
:105FC00000212046FFF776FFD6E7072B01D10523F6
:105FD000D6E7082BD0D1062394E700BF1C08002089
:105FE000F0B580F825309DF8143080F83D34002558
:105FF000DF234FF47A76C0E905121E4F07600122B5
:10600000C0E9015605610577427780F82450866221
:1060100080F82C5080F82D50C0F80051C0F8045181
:10602000C0F80851C0F80C51C0F81051C0F8145114
:10603000C0F81851C0F81C51C0F82051C0F82451C4
:10604000C0F82851C0F82C51C0F83051C0F8345471
:10605000C0F8385480F88A3080F88B3080F88C3063
:1060600080F88D3080F8E43080F8E53080F8E63054
:10607000F0BD00BFF04601002DE9FF414369002B50
:10608000044603DA002004B0BDE8F0818269002AEA
:10609000F8DB8B42F6DA8A42F4DAD9B20222684699
:1060A00002AE09F063FC30460322217E09F05EFC5B
:1060B00000203DF8101000258B1109B336F815208B
:1060C000F2B183EA9217FF061AD181EA0207FF07AD
:1060D00016D403F01F0312F00100236217D1022B24
:1060E000D0DCA3691D4D84F8240035F833101C4A18
:1060F0001C4801F0E5FF6369194A35F8331028E0C0
:106100000135032DD9D101300328D2D1BAE7092BAB
:10611000B8DC12F4F04FA369134F104E11484FF042
:10612000010584F824500CBF4FF080624FF0A0624C
:106130003A4311F4F04F36F833100CBF4FF080683B
:106140004FF0A06801F0BCFF636936F8331048EAED
:106150000702044801F0B4FF012094E7E047010082
:1061600010040107C41500201000010073B50125BB
:106170000577044600F039FA01462046FFF77CFF18
:10618000237F18402077002800F09280637F002B47
:1061900000F0898023686B499B6A2046984794F8F1
:1061A0002430226A002B57D0674B43F82240674BBC
:1061B000C4F80031664BC4F80431664BC4F80831AA
:1061C000654BC4F80C31654BC4F81031644BC4F80E
:1061D0001431644BC4F81831634BC4F81C3104F11A
:1061E0002F03C4F8A030614BC4F89830236A554A95
:1061F00084F87C300023C4E9202394F82520C4E9E6
:1062000024339A4204F17C030CBF01220222C4F819
:106210009C300C2384F8882084F88930637F04F153
:106220007C0604F1D80500960195002B7BD094F8EC
:106230002430002B72D004F079FC6A46062104F069
:1062400071FE237F1840D4F800312077314604F1E5
:106250003C00984750BB2BE0454984F8355041F845
:106260002240444AC4F80021434AC4F80421434A66
:10627000C4F80821424AC4F80C21424AC4F810214B
:10628000414AC4F81421414AC4F81821404AC4F8CC
:106290001C2104F13502C4F8A0203E4AC4F898201D
:1062A00084F83630A2E794F824301BB1002323771A
:1062B00002B070BD226A2E4984F8D82041F82240ED
:1062C000204AC4F8DC20B4F8F820A4F8E02094F8C0
:1062D00025203149C4F82011002A3049C4F824117E
:1062E0000CBF012202222E4984F8E22040F60C4223
:1062F000C4F82811A4F8E8202A492B4AC4F82C1124
:10630000C4F8EC202949C4F8301104F1D80284F80B
:10631000E33084F8EA30C4E93C237FE704F006FC6C
:106320006A4605218BE704F001FC07216A4604F068
:10633000F9FD237F18402077D4F82031294604F155
:10634000A40086E7A086010028080020197A000032
:10635000297900003D7800004D7700006D7700003E
:10636000757700008177000099770000CD5B000011
:106370001C080020218C0000398A00006D8A000072
:106380009D8C0000F9880000018900000D89000043
:10639000E98C0000055C00005D830000698100005D
:1063A000A1810000D5810000DD5E0000E1810000D8
:1063B00010B5036804465B6A98470123637720465B
:1063C000BDE81040FFF7D2BE38B5036804465B6AEB
:1063D0000D46984700236377A4F8F8502046BDE89F
:1063E0003840FFF7C3BEFFF7EFBF2DE9F0471E4669
:1063F000037F044692463BB3D0F8103163B300F1FB
:106400003C0990F8882048469847054668B9D4F872
:10641000047157B19DF8243084F82E0083F00103F5
:10642000324651464846B847054606F03BFC804692
:1064300006F038FC089BA0EB0800984204D294F8C0
:106440002E300BB9002DF3D094F82E30012B0CBF59
:1064500030460020BDE8F0870125E6E72DE9F0474A
:106460009A46037F089F04469146002B39D0D0F806
:10647000103123B300F13C0890F88820404698473B
:10648000054668B9D4F8086156B19DF8243084F8FF
:106490002E0083F00103524649464046B047054668
:1064A00006F000FC064606F0FDFB801B874208D97B
:1064B00094F82E302BB9002DF5D004200FE00125E3
:1064C000EEE7002DF9D194F82D3063B994F82E3011
:1064D0005BB194F82E30032B14BF00200220BDE8DE
:1064E000F0870620FBE70120F9E70520F7E737B53D
:1064F00090F8FC5090F838340191826A0092294655
:1065000000F233220446FFF7A9FF002384F82C3061
:1065100003B030BD037F4BB10023012280F82D3042
:10652000C0F8FC1080F82C20C0F838347047FFF712
:10653000F1BF2DE9F3411646027F9DF82050044635
:106540000F469846002A31D0B5B10368DB6A9847F8
:10655000032D28BF0325013DEDB2FF2D236807D091
:10656000E90028FA01F11B68C9B220469847F2E712
:106570001B6B0021204698479DF82430FF2E28BF32
:10658000FF26003318BF01230193A36A009304F28E
:106590003232F3B239462046FFF727FF0023C4F812
:1065A000340484F83C3402B0BDE8F0811046FAE7C8
:1065B00007B5019300230093FFF7BBFF03B05DF81D
:1065C00004FBFFFF07B500230093122213210348A9
:1065D000FFF706FD03B05DF804FB00BFD403002005
:1065E00008B506F003FB002008BD1B207047FFFF25
:1065F000034AB2F8CC3043F08003A2F8CC307047A5
:106600000000094037B501210D2006F0DDF9002119
:106610000D2006F0F1F968460722032109F0A6F9DA
:10662000BDF800301C4CC3F38413012568460722D3
:106630000521E55409F09AF9BDF80030C3F384133D
:10664000684607220621E55409F090F9BDF80030AC
:10665000C3F38413684607220921E55409F086F93B
:10666000BDF80030C3F38413684607220A21E554BD
:1066700009F07CF9BDF80030C3F3841307220B2125
:106680006846E55409F072F9BDF80030C3F384138D
:10669000E55403B030BD00BF2E0900200B7930B4A3
:1066A000DB01114C114DDBB2A3714B788A781B01D1
:1066B000120302F44052DBB213430A788446A85C0A
:1066C000CA78120202F4407200F00300134303433D
:1066D00063804B79064ADB01DBB22372002030BCB9
:1066E000CCF80020704700BF00420440B8480100C9
:1066F00054445700024B0020FF2218701A70704754
:106700000042044030B5836A85B004468C4601AD32
:10671000ABB193E8070085E807006268117883F859
:1067200004C0E26A9A6019601846626A9047A36AD8
:106730001BB195E8070083E8070005B030BD2B4684
:10674000EBE700BF10B4EFF30383103B5BB203F140
:10675000C001204A204C52F821006FF3104042F84B
:10676000210054F82330D3E906218A421BD018694E
:1067700040B393F820400F2C0BD99968496840F832
:106780002210D96901328A429A610CD05DF8044B1B
:106790007047072C19D8996809798154D969013251
:1067A0008A429A61F2D15B680C4993F903305DF833
:1067B000044B5809012203F01F0302FA03F341F8C6
:1067C0002030704798684068DCE79C68A48820F80F
:1067D0001240D7E7006000409C08002000E100E084
:1067E000F0B5EFF30383103B5BB203F1C0022F4916
:1067F0002F4C51F822006FF3104041F8220054F85A
:1068000023305868026A002A30D092F801C0DC694F
:106810005A69BCF1010F17D094420FD0D96841B327
:1068200093F820000F280AD80728986895BF895C3C
:1068300031F812100171818001325A61F0BD9868FF
:1068400051F822104160F7E704F1FF3E724513D082
:1068500001690029E0D090F9031016484D0901F0B4
:106860001F010CFA01F140F82510D5E75A69DC69DF
:10687000D2E798684160DFE790F903E00EF1C006C7
:106880004FEA5E10800051F8267000F1604000F57C
:1068900061400EF01F0E0CFA0EF56FF3104741F831
:1068A0002670C0F880510560B6E700BF0060004068
:1068B0009C08002000E100E010B4EFF30383103BDC
:1068C0005BB2324A324C03F1C00152F821006FF33F
:1068D000104042F8210054F823008268D2789207D1
:1068E00006D54268527A012A02D05DF8044B7047FF
:1068F0005909284C0122203103F01F0302FA03F347
:1069000044F82130BFF34F8FBFF36F8F436893F983
:106910000230002B2FDB5909203103F01F0302FA4C
:1069200003F344F82130BFF34F8FBFF36F8FD0E9EB
:106930000114237891F902106FF386130029237054
:1069400014DB01F1C00C114C4B099B0001F01F013D
:106950008A4003F1604354F82C1003F561436FF350
:10696000104144F82C10C3F880211A605DF8044BE4
:106970000121FFF7C7BE82685DF8044B13786FF3FF
:10698000861313700121FFF7BDBE00BF00600040F9
:106990009C08002000E100E070B5EFF30384103C98
:1069A000314B64B253F82460736893F90230002BC2
:1069B00042DB5A092D492032012003F01F0300FA5F
:1069C00003F341F82230BFF34F8FBFF36F8FD6E947
:1069D000012392F902101A7800296FF386121A70B7
:1069E00015DB01F1C00C224D4A09920001F01F0194
:1069F00000FA01F102F1604255F82C0002F5614203
:106A00006FF3104045F82C00C2F880111160DA785D
:106A10000021D5B21207D97021D4EB0712D405F0AA
:106A20001405142D16D0124BC03453F824206FF3E4
:106A3000104243F8242070BDB3681A786FF38612B1
:106A40001A70E4E70421304605F01405FFF75AFEFA
:106A5000142DE8D108213046FFF754FEE3E7052165
:106A60003046FFF74FFED8E79C08002000E100E029
:106A700000600040036A70B50446987800F07B001F
:106A800098700D46217841B32261E269E560106992
:106A9000002841D0226982B1A378816800688E689D
:106AA000E16803F00303013B22FA03F300222261B1
:106AB0009BB2B04780B9236A21789A7842F080026D
:106AC0009A7039BB94F802C00CF0030CBCF1020FB1
:106AD0001AD02A78DA70002070BD94F802C0E069FC
:106AE0000CF0030E0069A2EB0E02226105EB0E0210
:106AF000E2600028CED19A780CF0030C42F08002BC
:106B0000BCF1020F9A70E4D12A8842F47E42002040
:106B1000DA8170BD002070BD9A7842F080029A70D0
:106B200070BD00BF036A91F801C09A7800B502F009
:106B30007B0E02F00B029A700022C26088785870B7
:106B400010461A786CF301021A70CA789A7493F896
:106B500007C00A780CF0A30102F05C020A43DA7164
:106B600083F802E05DF804FB10B5D0E907210023AB
:106B700043608B7092F905202F4904465009012388
:106B8000203002F01F0203FA02F241F82020BFF386
:106B90004F8FBFF36F8FE26992F90B2050092030BD
:106BA00002F01F0203FA02F241F82020BFF34F8FD8
:106BB000BFF36F8FE26992F907205009203002F08D
:106BC0001F0203FA02F241F82020BFF34F8FBFF3F8
:106BD0006F8FE26992F90920500902F01F02934079
:106BE00000F1200241F82230BFF34F8FBFF36F8FC7
:106BF000E369DA6822B1936810681B6A9847E36911
:106C00001B691BB19A681868136A9847EFF31081E3
:106C1000012383F31088E369084A1C78D2F8000145
:106C20004FF00043E3400343C2F80031D2F8003193
:106C300081F31088002010BD00E100E0006F0440E7
:106C4000F0B5846A85B005460F4694466E46B4B1E9
:106C500094E80F0086E80F00EB691B7884F804C005
:106C60002360EB6A2046C4E902736B6A9847AC6AFA
:106C70001CB196E80F0084E80F0005B0F0BD344663
:106C8000EAE700BF8C46516830B4029C0D6880B9B9
:106C90001C609CF8010038B9E8784FF0010C0B3407
:106CA0006CF30510E8701C60936810681B6830BCBA
:106CB000184704F10C001860EBE700BF2DE9F0471E
:106CC0000D4609780323CB4013F0010301F1007254
:106CD00018BF1023037002F560528378520101211E
:106CE00061F301030262A9696A6942620022C0E994
:106CF0000A21C56183706B7882B0044623B983781A
:106D0000022262F30103837095F90B00594B95F849
:106D10000AC04209203200F01F06012101FA06F6DE
:106D200043F82260BFF34F8FBFF36F8F524A534E29
:106D300000F1C0074FEA0C1C52F827E06FF3104E29
:106D400042F827E01F185FFA8CFC87F800C346F86A
:106D5000204095F9050095F804C04709203700F058
:106D60001F0E01FA0EFE43F827E0BFF34F8FBFF36B
:106D70006F8F00F1C00703EB000852F827E04FEADD
:106D80000C1C5FFA8CFC6FF3104E42F827E088F879
:106D900000C346F8204095F9070095F806C047095A
:106DA000203700F01F0E01FA0EFE43F827E0BFF374
:106DB0004F8FBFF36F8F00F1C00703EB000852F84D
:106DC00027E04FEA0C1C5FFA8CFC6FF3104E42F880
:106DD00027E088F800C346F8204095F9090095F8A7
:106DE00008C04709203700F01F0E01FA0EF143F8E2
:106DF0002710BFF34F8FBFF36F8F00F1C0074FEA2B
:106E00000C1152F827C003446FF3104C42F827C00E
:106E1000C9B283F80013EA6846F8204072B153689B
:106E20001B684FF4002143F8041B216A05310091CF
:106E3000E1692078FFF726FF0646B0B92A69FAB162
:106E400053681B684FF0006143F8081B216A033147
:106E50000091E1692078FFF715FF064680B1EB68E5
:106E60001BB19A681868136A9847304602B0BDE8AB
:106E7000F08700BF00E100E0006000409C080020B7
:106E8000EFF31080012383F31088984B2E78D3F80A
:106E900000214FF00041F14022EA0102C3F8002135
:106EA000D3F8003180F31088236AE06900229A70D9
:106EB0001A715A729A72DA725A83297840F207224A
:106EC000CA40D20744BF4022DA7406221A772278D9
:106ED0007AB1C168013A002900F0FE800126120350
:106EE00091B2314341F006029A829A8A92B291425B
:106EF000FBD1EA78A978D20042EA01126978032925
:106F000000F0D780002914BFF221E221ED69D2B24E
:106F10001A7099712A7B520002F002025A736A7841
:106F2000A97800261E7295F800C0D201490101F02F
:106F30002001D2B20A43ACF10201012940F2BD8026
:106F4000D2B2DA716A68917859701978567866F316
:106F500001011970D17899741278D97902F05C0224
:106F600001F0A3010A43DA710027C4E90377C4E9F9
:106F7000057790F905105E4E01F1C00E4A0956F8EA
:106F80002E80920067F3104802F1604246F82E808E
:106F900002F561424FF0010E01F01F010EFA01F1FE
:106FA000C2F88011116090F90B1001F1C0094A0973
:106FB00056F829A0920002F1604202F5614267F39F
:106FC000104A01F01F0146F829A00EFA01F1C2F89B
:106FD0008011116090F9071001F1C0094A0956F8B3
:106FE00029A0920002F1604202F5614201F01F0106
:106FF00067F3104A46F829A00EFA01F1C2F8801191
:10700000116090F9091001F1C0004A0956F820906A
:10701000920002F1604267F3104946F8209002F5B1
:1070200061420CF0030C01F01F010EFA01F14CF06B
:10703000700CC2F88011116083F802C06B89238143
:107040004FF6FF7843452DD0EFF310818EF3108873
:10705000284A13681BB92848C3704023C3701368BB
:107060000133136081F31088218924480B0A1B0126
:1070700053FA81F150F8213023F0011323F44043F7
:1070800043F0040340F82130EFF31081012383F330
:107090001088136813B11368013B13601368B3B110
:1070A00081F31088164B63600026304602B0BDE8BD
:1070B000F08742F04002F22128E7BCF1020F08BF3E
:1070C00042F01002FF21D2B25970DA714CE70A4A3D
:1070D0008020D370D070E3E7C169097A11400902BA
:1070E00001F4706141F00106F9E600BF006F044051
:1070F0000060004098080020000D04400008044093
:10710000554943532DE9F04F1E46FF23B3703378A2
:107110006FF382038BB033708023F370554B099269
:10712000554A1B6A12680191C3F302618A40C3F396
:107130000233DA40514B07900021100A0692089161
:10714000059002910093A2FB03BA099B009A934217
:107150006EDA9DF8203003930027494B039ADD5DDA
:10716000C5F34003C5F3800504932B43934256D1E6
:10717000444B33F81780079B03FB08F8069BB3FBCF
:10718000F8F2541EFF2C4AD802FB08F91DE0059BBB
:10719000B9FBF3F37F2B03FB00F040D90028B8BF05
:1071A000FF300012A0F5C330A0380028009AB8BF05
:1071B0004042824240DC029BF370337843F0040388
:1071C000A9EB0809337054B3013C4A464FEAE9730E
:1071D0005846514609F042F9019A002AD7D1A0F544
:1071E000C333A03B002B009AB8BF5B429A4216DD26
:1071F0000093234BB470DA5D3378C2F3000161F37E
:107200008613049961F3041365F3C3033370737831
:10721000C2F3C10262F301037370019B0293013751
:107220000D2F9AD1089BF3B1009B099A93421DDC64
:1072300000200BB0BDE8F08F0293114B049AD95D8A
:1072400033780090C1F3000060F3861362F30413F7
:1072500065F3C30333707378B470C1F3C10161F394
:1072600001037370A7E7012308936EE703200BB0B7
:10727000BDE8F08F00E0014028090020A086010051
:10728000C0480100D0480100F0B5EFF30383103B84
:107290005BB203F1C001344A344C52F821006FF361
:1072A000104042F8210054F82300C3691B6913B150
:1072B000036913B1F0BD036983B9D0E90824937859
:1072C00003F07F03002143F004039370C160002C9E
:1072D000F0D0BDE8F0408022FFF7B2BC05785DB386
:1072E000066AF18AC1F30421A9421ED28478C268D9
:1072F0001F4F04F0030E74460BE092F800C086F8AE
:107300000FC001311B1B2244A942C0E903230CD248
:107310005BB1BEF1020FF0D1B2F800C04CEA070C2D
:107320001FFA8CFCA6F80EC0EBE732796FF3C71298
:107330003271002BBED1C0E7827802F0030102292E
:10734000C1680BD0046A0D78E57002F003029B1A45
:107350000A44C0E90323002BACD1AEE70C88056AD0
:1073600044F47E44EC81F0E7006000409C0800207B
:1073700000FEFFFF10B582B0EFF30383103B5BB25A
:1073800003F1C001574A584C52F821006FF31040E6
:1073900042F8210054F82340E369DB6813B1A36984
:1073A000002B49D122894FF6FF739A4275D122787A
:1073B000236AF2B1D98AC80612D01B8AC3F3080324
:1073C0000193A369FBB9636A2BB10422019920469A
:1073D000FFF736FC22782AB1236AD98AC906E8D198
:1073E000BE221A7123894FF6FF72934231D102B047
:1073F00010BDA17801F003010229DED05B79019371
:10740000A369002BDFD0A278606902F0030201A912
:1074100009F02CFAD4E90521A37803F003031A44F8
:10742000C91AC4E9052129B9636A1BB101222046A2
:10743000FFF706FC2278CEE7636A0021C4E9051154
:10744000002BD4D00122204602B0BDE81040FFF747
:10745000F7BB1A0A1201254952FA83F351F8232087
:1074600022F0011222F4404242F0040241F82320AB
:10747000EFF31082012383F310881D4B196811B1BB
:107480001968013919601B681BB91A498020CB7033
:10749000C87082F3108802B010BDEFF31081012391
:1074A00083F31088124B1A681AB91248C27040222E
:1074B000C2701A6801321A6081F3108822890B4960
:1074C000130A1B0153FA82F251F8223023F0011300
:1074D00023F4404343F0050341F82230236A227825
:1074E00067E700BF006000409C08002000080440DF
:1074F00098080020000D044010B5EFF30384103C01
:107500000B4B64B253F82400D0E90821937803F0C0
:107510007B03937019B102220021FFF791FB054B09
:10752000C03453F824206FF3104243F8242010BDD8
:107530009C0800200060004010B5EFF30384103C6D
:10754000194B64B253F82400037843B9837803F0ED
:107550000303022B03D0036A5979C9B203E0036A1B
:10756000198AC1F3080193F804C01CF0100F0CF045
:10757000380206D093F81CC01CF0010F08BF42F07F
:10758000400293F804C00CF0C70C83F804C0436AAF
:107590000BB1FFF755FB054BC03453F824206FF3B4
:1075A000104243F8242010BD9C08002000600040D9
:1075B00030B5436A85B004468C4601ADABB193E863
:1075C000070085E807006268117883F804C0A26AA2
:1075D0009A6019601846226A9047636A1BB195E861
:1075E000070083E8070005B030BD2B46EBE700BF7E
:1075F00010B4EFF30383103B5BB203F1C001144AF4
:10760000144C52F821006FF3104042F8210054F856
:1076100023305A69D9698A4206D2D3E90240A8B117
:10762000805CE07001325A618A4202D05DF8044BFE
:1076300070471A69002AF9D19A685DF8044B93786B
:1076400003F07B0343F0040393707047E070E9E7B5
:10765000006000409C08002010B4EFF30383103B4F
:107660005BB203F1C001174A174C52F821006FF3C7
:10767000104042F8210054F823305A69D9698A42EF
:1076800006D2D3E90240D0B1805CE07001325A6189
:107690009A698A4207D2986819694079541C9C619A
:1076A0008854D3E90621914206D19A68937803F071
:1076B0003B0343F0040393705DF8044B7047E070A4
:1076C000E4E700BF006000409C08002010B5EFF325
:1076D0000384103C0A4B64B2012153F824008268F1
:1076E000937803F003039370FFF762FFC034054BF8
:1076F00053F824206FF3104243F8242010BD00BF3C
:107700009C0800200060004010B5EFF30384103C9B
:107710000C4B64B24FF0840C53F8240083689A78C1
:1077200002F003029A701A7983F804C00421FFF76B
:107730003FFFC034044B53F824206FF3104243F84A
:10774000242010BD9C080020006000400269002336
:10775000F0219370D17290F82A10C269036280F808
:10776000303080F82C104262184670474160027237
:1077700000207047C0E90E3241630020704700BF0F
:10778000C368044A9B1AB3FA83F35B090B700020A9
:10779000704700BF4332495310B502690023F021FE
:1077A00093709370D17290F82A10026880F82C10B0
:1077B00004469169C0696062236284F83030E360F6
:1077C00021B18B6808681B6A9847226853691BB10E
:1077D0009A681868136A9847EFF31081012383F3BE
:1077E00010882368074A1C78D2F800014FF0004344
:1077F000E3400343C2F80031D2F8003181F310882E
:10780000002010BD006F044003685969A1B190F8D1
:107810002D3070B5044603F0FF0563B98A68038C08
:1078200096680868A1692A46B047E269C4E9085227
:10783000012384F8333070BD704700BF38B590F82D
:1078400008C080F82E30BCF1010FC0E906120546D1
:1078500047D090F82AC085F82BC0002385F82D303A
:1078600085F82F3085F8313085F8333095F82D10B4
:1078700085F82C30C5E9082311B1012385F8313092
:107880002A682B695269B42199706AB15268002143
:107890001268997095F82D40FCB94FF000611160A5
:1078A0002321B42299729A7095F830201AB9512286
:1078B000DA72002038BD0022BCF1010F85F83020BB
:1078C00019D0012295F82910D9700CF1FF3C85F8E8
:1078D0002BC085F82C20002038BD11601149516063
:1078E000DEE7436880F82AC000215B0080F8291099
:1078F00080F82830AFE72846FFF786FF95F82A3052
:1079000095F82C20012B07D1013295F828102B690E
:1079100095F82BC0D2B2D7E701322B6995F82BC06E
:10792000D2B2CFE7EA48010038B590F808C080F835
:107930002E30BCF1010FC0E90612054647D090F881
:107940002AC02A620023012185F82D1085F82F30E6
:1079500085F8313085F8333085F82C306B6295F836
:107960002D3085F82BC00BB185F831102A682B69B2
:107970005269B42199706AB15268002112689970F5
:1079800095F82D40FCB94FF0006111602321B4221D
:1079900099729A7095F830201AB95122DA72002043
:1079A00038BD0022BCF1010F85F830201BD0012228
:1079B00095F82910D9700CF1FF3C85F82BC085F89B
:1079C0002C20002038BD116012495160DEE7436869
:1079D00080F82AC05B00002143F0010380F82910E1
:1079E00080F82830ADE72846FFF70EFF95F82A30DB
:1079F00095F82C20012B07D1013295F828102B691E
:107A000095F82BC0D2B2D5E701322B6995F82BC07F
:107A1000D2B2CDE7EA4801002DE9F0430B788A683D
:107A2000426003F1007303F560535B010160036181
:107A30000A7B02720D46D1E906214163296AC163BE
:107A4000002183B004468163C2B1516895F90EC02C
:107A50000F6803C905336E464FF4002E7B60C7F8EC
:107A600000E086E80300019B83F800C0936810687B
:107A70001B6831469847002840F0AC806B69D3B151
:107A80005A682768166897F90F7092E80300226910
:107A90000332B2604FF0000C6A46C6F800C082E8BC
:107AA00003001146019A17709A681868136898477E
:107AB000002840F0AD80EFF310804FF0010C8CF304
:107AC0001088584B2E78D3F800214FF00041F14038
:107AD00022EA0102C3F80021D3F8003180F31088B4
:107AE00022682369516A504F0020F0229870DA72A0
:107AF0008A7802F003021A700A78FA2692009E71C0
:107B000042F020024E785E70D2B2DA714A791A726F
:107B1000CA789A740A79454ED20042EA0C02D2B26F
:107B20005A7223229A72587395F90F306A7BF118B2
:107B30001201D2B281F8002303F1C00847F82340B4
:107B40003B494FEA531E51F828904FEA8E0E0EF132
:107B5000604E0EF5614E60F3104903F01F0341F8CB
:107B600028900CFA03F3CEF88031CEF8003095F966
:107B7000103006EB030E03F1C0088EF8002347F81F
:107B800023404FEA531E4FEA8E0E51F828900EF113
:107B9000604E0EF5614E03F01F030CFA03F360F321
:107BA000104941F82890CEF88031CEF8003095F990
:107BB0000E30834211DA0020C4E908001D4B84F81E
:107BC0002D00A06184F82E00E06184F82F00E360AE
:107BD00084F8300003B0BDE8F0831E4403F1C00513
:107BE00086F8002347F823405A09920051F825608F
:107BF00002F1604202F5614203F01F030CFA03F345
:107C000060F3104641F82560C2F880311360D2E776
:107C1000AB69002BDED09A681868136A9847002871
:107C2000D8D148E7006F04409C08002000E100E044
:107C3000006000404332495370B5866B82B0044601
:107C40000B466D463EB396E8030085E80300E26B01
:107C50003371236832605A6912B194F82D10A1B1C2
:107C60009B6913B194F82D2052B9636B3046984745
:107C7000A36B1BB195E8030083E8030002B070BD5D
:107C80009A68186813699847EFE7936810681B694A
:107C900098472368E4E72E46D9E700BFEFF3038354
:107CA000103B5BB2044AC03352F823106FF310410B
:107CB00042F82310704700BF0060004070B5EFF33A
:107CC0000383103B5BB2614AC03352F823106FF359
:107CD000104142F82310EFF30383103B5C4A5BB280
:107CE00052F823402269137BC3F30000DB072CD436
:107CF00094F82C3094F82A10994216D094F82D104C
:107D000009B1022B41D02046FFF77EFD236994F88C
:107D10002820DA7094F82B2094F82C30013A0133A3
:107D200084F82B2084F82C3070BD94F8333003F0A5
:107D3000FF053BBB236A93BB94F82E3063B35221FB
:107D40000123D17284F8303070BD94F82D308BB19E
:107D500094F8313073B9636AA1695279CA54D4E98D
:107D6000082394F82E10013A0133C4E9082379B1AD
:107D70002269E4E7002001215423206284F82F10B7
:107D8000D37270BD84F8330070BD5223D37270BDBE
:107D900023695422DA7270BD5423D37270BD94F8F3
:107DA0002D1041B9616AA069013B405C0131C4E911
:107DB0000831D07070BD94F8311000292ED02168A0
:107DC00084F831504869002838D08969002935D0B5
:107DD000E069022832D98E68831E0868B668F421EB
:107DE00091709BB2A2692946B0472268E369526943
:107DF000916810688E68023B9BB22A462946B047BC
:107E0000E36922690220023BC4E90803012184F8E6
:107E100033100023FF209372D070CBE7636AA1690F
:107E20005279CA54D4E90832013B0132012BC4E92A
:107E30000832226904D0FF20D070BBE7012BE8D1C3
:107E40002023FF209372D070B4E700BF0060004091
:107E50009C08002010B582B0EFF30383103B374A33
:107E60005BB252F823000269D37A6FF3C303D37273
:107E700090F82F30ABBB90F82A1003F0FF0C90F86D
:107E80002C3099421BD1036A5BB990F82D1090F801
:107E90003040002914BF02210321A4B3D372FFF79D
:107EA000CBFEEFF30383103B5BB2254AC03352F89D
:107EB00023106FF3104142F8231002B010BDB3B984
:107EC000012929D090F829C00021D17282F803C07D
:107ED00090F82B200133013A80F82B2080F82C30C9
:107EE000DFE7F023D3720121FFF7A6FED9E790F870
:107EF0002D4004F0FF016CB1022BE5D190F829C0B0
:107F00004CF0010CE0E7F023D372937803F0CF0339
:107F10009370C4E78C46D7E70190FFF775FC019892
:107F200090F82A30012B05D190F828C0026990F80A
:107F30002C30C9E7026990F82C30C3E79C08002078
:107F400000600040F0B583B0EFF30384103C154BA4
:107F500064B253F82450EF68BFB16A682B6992F994
:107F60000D20121B18BF01226E46C3B193E8030017
:107F700086E803001A706A695A601846B8472B6988
:107F80001BB196E8030083E80300074BC03453F8A5
:107F900024206FF3104243F8242003B0F0BD334691
:107FA000E8E700BF9C08002000600040EFF3038377
:107FB000103B5BB20649074A51F823100120C03339
:107FC000087252F823106FF3104142F823107047E3
:107FD0009C080020006000400B0A1B01044853FA73
:107FE00081F150F82130C3F3400300201370704733
:107FF00000080440C8B2012383404AB91A040B0A9E
:108000005B0103F1804303F5802300209A607047F1
:108010009AB2F4E738B50488002C4DD043680021AB
:10802000043303EBC40040F202450C4640F2034C1B
:1080300040F2044E0FE0624530D153F8042C02F0B8
:10804000B852B2F1807F14BF41F0020144F0020443
:108050000833834211D01A88AA42ECD153F8042C79
:1080600002F0B852B2F1807F03F1080314BF41F06F
:10807000010144F001048342EDD1C943CDB2012096
:1080800002F092FA0D4B93F8BB2414432C4083F872
:10809000BB440120BDE8384002F056BA7245D7D142
:1080A00053F8042C02F0B852B2F1807F0CBF44F0B8
:1080B000040441F00401CBE7FF25E0E700E00140C4
:1080C00070B584B002AB012668460C461546ADF883
:1080D0000C100292ADF800600193FFF79BFFEFF3E5
:1080E000108286F310881D490B681BB91C48C370A9
:1080F0004023C3700B6801330B6082F31088EA03DE
:108100004FEA1423E4B219D41B01164A234442F85F
:108110002350EFF31082012383F310880B6813B10F
:108120000B68013B0B600B681BB90D498020CB70BD
:10813000C87082F31088002004B070BD04EB0310F7
:10814000084A52F820606FF3104642F8206025F488
:10815000803642F820601B01D7E700BF9808002056
:10816000000D044000080440034610B400209C6841
:108170005A614FF0010C83F821C083F82300C3E952
:1081800003122279986142F010022271227960F381
:10819000C30222715DF8044B83F82400704700BFCE
:1081A000034610B400209C6883F8210083F8230064
:1081B000C3E903125A612279986142F010022271D8
:1081C000227960F3C30222715DF8044B83F8240026
:1081D000704700BFC0E90B3281620020704700BFCA
:1081E00010B4826803682F4C00214160D17193F96B
:1081F0000F304FEA531C03F01F020CF1200C012337
:1082000003FA02F244F82C20BFF34F8FBFF36F8FB5
:10821000026892F90C204FEA521C0CF1200C02F07B
:108220001F0203FA02F244F82C20BFF34F8FBFF372
:108230006F8F026892F90D204FEA521C0CF1200C4E
:1082400002F01F0203FA02F244F82C20BFF34F8F12
:10825000BFF36F8F026892F90E204FEA521C0CF1A7
:10826000200C02F01F0203FA02F244F82C20BFF3A4
:108270004F8FBFF36F8FEFF3108483F31088006884
:10828000094A0078C0F109008340D2F80001034395
:10829000C2F80031D2F8003184F3108808465DF846
:1082A000044B704700E100E0006F044070B5C36A02
:1082B00084B004468C46164601AD9BB193E8070096
:1082C00085E8070083F808C0226B1846C3E900263A
:1082D000A26A9047E36A1BB195E8070083E80700AC
:1082E00004B070BD2B46EDE78268012370B580F8BD
:1082F00020300226B323D37180F8216053790446DD
:108300006FF300035371C2690D46FFF7CFFFA368F7
:10831000DE705A7942F001025A7194F82120012A44
:1083200016D094F8212002B170BD052DFCD194F82F
:108330002320002AF8D194F821201AB95A7A02F0A1
:10834000F3025A72BF210122D97184F8232070BD33
:10835000042DECD0082DE4D1E9E700BF2DE9F0436E
:108360000B78D1E9054203F5800303F5A6631B02F0
:108370000026C0E90B62836001608462EFF3108421
:10838000012383F310880A78C2F109029340774AE7
:10839000D2F8001121EA0303C2F80031D2F800310B
:1083A00084F3108802688368D56980F823601F21F0
:1083B000AC7819705F211970DF211970917A012949
:1083C00000F0CD801689F10901F0060141F00101AC
:1083D000F6B2D9729E72D17A5668C90041F0010195
:1083E000C9B2997162498E424FF00201D9700CBF37
:1083F0006FF07F010021002C00F0AC8041F07D0186
:10840000C9B2013C597164B2697841F0E001197454
:108410002978584D090101F0700141F00801997067
:10842000917C44EA8114E4B2A0211C71D9719F218E
:10843000197092F90F30517C4F4C0901E618C9B2FE
:1084400086F8001303F1C0074C4945F8230051F8A2
:1084500027C05E09B6006FF3104C06F1604641F884
:1084600027C006F561464FF0010C03F01F030CFA1C
:1084700003F3C6F88031336092F90D3092F810E0C2
:10848000E6184FEA0E1E5FFA8EFE03F1C00786F86B
:1084900000E345F823005E0951F82780B60006F195
:1084A000604606F561466FF3104803F01F0341F87C
:1084B00027800CFA03F3C6F88031336092F90E304E
:1084C000E71803F1C00887F800E345F823005F09C7
:1084D00051F82890BF0007F1604707F561476FF337
:1084E000104903F01F0341F828900CFA03F3C7F872
:1084F00080313B6092F90C201444530984F800E366
:1085000045F8220002F1C0049B0051F8245003F109
:10851000604303F5614302F01F020CFA02F26FF3AD
:10852000104541F824500026C3F880211A60022229
:1085300080F82460124B80F82120C0E9056680F89D
:108540002260C6600661436080F82060C6613046E4
:10855000BDE8F08341F05D01C9B2597154E711895A
:10856000DE724900C9B2997235E700BF006F04405E
:1085700040420F009C08002000E100E00060004045
:108580005343324930B583B0EFF30383103B5BB202
:10859000454AC03352F823106FF3104142F82310BC
:1085A000EFF30383103B5BB2404A52F8234094F848
:1085B0002230B3B9A368012284F82220DA7CD2B237
:1085C0008DF805209DF8052012F0010F5A7A14BF8E
:1085D00002F0F70202F0F3025A72AC22DA7103B031
:1085E00030BD94F820304BB9A3681B7A13F0080F04
:1085F000204614BF08210421FFF776FE2269A2B9A4
:10860000A368D97CC9B28DF806109DF806101979B7
:1086100041F010011971197941F0080119711979A6
:1086200062F30411197103B030BDA369A1689A42C5
:1086300009D0E268C97C581CA061D154E3690133B8
:10864000E36103B030BD022584F821504B79E26923
:108650006FF300034B7120460621FFF727FEA36846
:108660002169DD705A7942F001025A7191B9DA7CC0
:10867000D2B28DF807209DF807201A7942F0100237
:108680001A711A7942F008021A711A7961F3041208
:108690001A71A4E7A269E168DB7C501CA0618B54CD
:1086A000E3690133E3619AE7006000409C08002021
:1086B00038B5EFF30383103B5BB2244AC03352F862
:1086C00023106FF3104142F82310EFF30383103BA4
:1086D0005BB21F4A52F8234094F8203093B194F8CB
:1086E000213003F0FF0263B9A369216999420ED0DA
:1086F000E269E068A168C05C887401330132C4E9B2
:10870000063238BD05212046FFF7EEFDE7E7236876
:108710000E4993F90E3003F1C000002B51F82050A0
:1087200062F3104541F8205009DB5A09094803F06B
:108730001F030121603201FA03F340F82230A268DE
:10874000D37943F04003D37138BD00BF00600040CF
:108750009C08002000E100E038B5EFF30383103BF4
:10876000204A5BB252F82340A1680B795807C3F343
:10877000800217D5CA796FF38612C023CA7101E04F
:10878000013B02D0CA795206FAD4EFF30383103BBF
:108790005BB2154AC03352F823106FF3104142F810
:1087A000231038BD022584F821504B7962F3000371
:1087B0004B71E26907212046FFF778FDA168CD7073
:1087C0004B7943F001034B7194F82130002BD1D148
:1087D000A369E269E0680132C05C88740133C4E9CE
:1087E0000632C7E79C0800200060004010B582B048
:1087F000EFF30383103B3E4A5BB252F823008368D9
:108800005A7A91074DD1D1B211F00C0F3CD0012210
:1088100080F8242090F82120012A65D0016982691E
:108820009142C26988BF02F1FF324FF0030188BF55
:10883000C2614FF0000EA024DC7180F820E080F8C7
:1088400022E093F805C06EF3000C83F805C090F8A1
:108850002440002C43D1DF241C709F241C70002472
:108860000223C46180F82130FFF720FDEFF303837A
:10887000103B5BB21F4AC03352F823106FF3104114
:1088800042F8231002B010BDCA06EFD5DA7CD2B28E
:108890008DF807209DF80720DA7902F0EF02DA71EF
:1088A000E4E70022A02180F82420D97180F820205C
:1088B00080F82220597962F30001597190F8241050
:1088C00081B9DF219F2219701A7000210223C26929
:1088D00080F82130C1610121FFF7E8FCC6E783F889
:1088E00009E0BCE75A72F0E7C2690221A1E700BFC4
:1088F0009C08002000600040416002720020704728
:10890000C0E90E3241630020704700BFC368044ACB
:108910009B1AB3FA83F35B090B700020704700BF0A
:108920004349495230B5836B83B004460A466D46CD
:10893000A3B193E8030085E80300E16B1A71626B51
:10894000196018469047A36B1BB195E8030083E8B4
:108950000300002384F82B3003B030BD2B46ECE736
:1089600030B4334B02691B6A82B003F00F230193CA
:108970000199019D137C90F82C4094B9C1F3032117
:10898000DBB2A1EB15618B409B0805D1082002B03A
:1089900030BC7047013BF9D05178C909FAD1B323F3
:1089A000D3710023016890F8264080F8283080F8C1
:1089B00027404C6A856980F82B30C56180F82D30DE
:1089C000036280F82E3080F82F3080F83030237822
:1089D0006478012B0CBF0523042343EA4403DBB274
:1089E000D370537943F00103537191F90F30002B89
:1089F00009DB10495C09012203F01F0302FA03F3AB
:108A000041F824300269BF23D37190F82C1001F093
:108A1000FF0331B1002380F82C30184602B030BC7F
:108A2000704702211846517002B030BC704700BF39
:108A300000E0014000E100E090F808C080F82A3032
:108A4000BCF1010FC0E905120AD1436880F826C0C5
:108A50005B00002243F0010380F8252080F82430D9
:108A6000012380F82930FFF77BBF00BF90F808C0D2
:108A700080F82A30BCF1010FC0E9051208D1436823
:108A800080F826C000225B0080F8252080F8243082
:108A9000002380F82930FFF763BF00BF0369026835
:108AA0002DE9F04F1F241C705F241C70DF241C7004
:108AB000546A55682279564EDFF8608142F0E00230
:108AC0001A74E27842F0E0025A74A278120102F0BD
:108AD000700242F008029A7022786478012A0CBF72
:108AE0000522042242EA4402D2B2DA70494A95428F
:108AF0000CBFF72277225A710027B3229F71DA71D7
:108B000091F9112091F80DC0B4184FEA0C1C5FFACE
:108B10008CFC84F800C302F1C00548F822003E4CEA
:108B20004FEA521E54F825904FEA8E0E67F3104913
:108B30000EF1604E44F825900EF5614E012502F0CD
:108B40001F0205FA02F2CEF88021CEF8002091F93A
:108B50000F2006EB020E02F1C0098EF800C348F8A0
:108B600022004FEA521E4FEA8E0E54F829B00EF141
:108B7000604E0EF5614E02F01F0205FA02F267F335
:108B8000104B44F829B0CEF88021CEF8002091F99E
:108B9000102006EB020E02F1C0098EF800C348F85F
:108BA00022004FEA521E54F829B04FEA8E0E0EF101
:108BB000604E0EF5614E02F01F0267F3104B44F851
:108BC00029B005FA02F2CEF88021CEF8002091F902
:108BD0000E100E444A0986F800C348F8210001F13E
:108BE000C00001F01F018D4054F82010920002F1E6
:108BF000604267F3104144F8201002F561424FF0E3
:108C00009F0AC2F88051156083F800A0BDE8F08F7C
:108C100000E100E040420F00006000409C0800209E
:108C20000A7802F5800202F5A662120270B50261AE
:108C30008A68016042600A7B0272CA694263002549
:108C40000A6AC26304468563EFF3108C012282F343
:108C500010880B78C3F109039A400E4BD3F80061DA
:108C600026EA0202C3F80021D3F800318CF3108801
:108C7000FFF714FF084B84F82950C4E9075584F81E
:108C80002A50656184F82B50A56184F82C50E3606C
:108C9000284670BD006F04404349495238B5C36946
:108CA000044613B990F82C30A3B12369216800253C
:108CB000DD712046FFF7F2FEA36994F826202362B7
:108CC000236984F82820B322E56184F82C50002021
:108CD000DA7138BD90F82B30002BE6D12369B3222E
:108CE000DA71002038BD00BF38B5C36904461BB92E
:108CF00090F82C30002B6FD0236921680025DD719E
:108D00002046FFF7CBFE94F82620A369E56184F89E
:108D10002820236284F82C50236922680020B32184
:108D2000D971D871E06092F911302E494FEA531C85
:108D300003F01F020CF1200C012303FA02F241F8A8
:108D40002C20BFF34F8FBFF36F8F226892F90E2054
:108D50004FEA521C0CF1200C02F01F0203FA02F23F
:108D600041F82C20BFF34F8FBFF36F8F226892F929
:108D700010204FEA521C0CF1200C02F01F0203FAE3
:108D800002F241F82C20BFF34F8FBFF36F8F2268A0
:108D900092F90F204FEA521C0CF1200C02F01F0236
:108DA00003FA02F241F82C20BFF34F8FBFF36F8F0D
:108DB000EFF3108583F3108821680B4A0978C1F11D
:108DC00009018B40D2F800110B43C2F80031D2F8F0
:108DD000003185F3108838BD90F82B30002B9BD0E4
:108DE0008AE700BF00E100E0006F044010B483B0E8
:108DF000EFF30383103B5BB2484AC03352F82310B1
:108E00006FF3104142F82310EFF30383103B444A01
:108E10005BB252F8233093F82D20BAB99A69022A2E
:108E20001A699EBF117941F040011171D969012978
:108E300017D0D27CD2B28DF8072001219DF80720EF
:108E400083F82D1003B05DF8044B7047DA69002AEF
:108E5000F8D0032A0ED0022A4ED0012A21D0196957
:108E60000DE0117941F010011171117941F0080103
:108E70001171DEE719690A7942F040020A711A6A33
:108E80005869C97C8154D3E907210131013AC3E90A
:108E90000721002AD6D119690B7962F386130B7169
:108EA000D0E793F82A1089B319681E4C91F90F1076
:108EB0004809203001F01F0102FA01F144F82010A6
:108EC000BFF34F8FBFF36F8F1969C87940F08000EF
:108ED000C871087940F01000087108794FF0040C4F
:108EE0006FF3C300087181F801C048796FF3000087
:108EF000487183F82C20C2E719690A7942F0100200
:108F00000A710A7942F008020A71B8E719694A7AC7
:108F1000082002F0F7024A724870B0E70060004093
:108F20009C08002000E100E0EFF30383103B5BB2FC
:108F3000354AC03352F823106FF3104142F8231022
:108F4000EFF30383103B5BB2304A52F8232092F8D0
:108F50002730002B37D192F829309BBBD36910B44E
:108F6000002B42D11069C1796FF3C711C023C171C1
:108F700001E0013B02D0C179C909FAD11368224A44
:108F800093F9103003F1C001002B52F821406FF328
:108F9000104442F8214009DB5A091D4C03F01F031D
:108FA0000121603201FA03F344F82230C3795DF8FD
:108FB000044B43F04003C3717047022909D192F872
:108FC000300030B9704792F82610032992F8281023
:108FD000F3D0106992F824C080F812C00131013B2F
:108FE00082F8281082F827307047D2E90404116A09
:108FF000013B645C84740131C2E90731002BB2D0BB
:109000005DF8044B704700BF006000409C080020E2
:1090100000E100E010B4EFF30383103B2B4A5BB296
:1090200052F8233093F829201AB193F82720012A07
:1090300047D0DA69D2B11969CA796FF38612C023B1
:10904000CA7101E0013B02D0CA795206FAD4EFF3AB
:109050000383103B5BB21E4AC03352F823106FF3F8
:10906000104142F823105DF8044B704793F82A1022
:10907000F9B11968174C91F90F10480920304FF0D9
:10908000010C01F01F010CFA01F144F82010BFF3AC
:109090004F8FBFF36F8F1969C87940F08000C87196
:1090A00004204870487962F30000487183F82CC0AE
:1090B000C2E719694B7A082203F0F7034B724A7032
:1090C000BAE793F83020002AB3D1B4E79C08002017
:1090D0000060004000E100E038B5EFF30383103B8F
:1090E0004B4A5BB2E02152F8234023695A7A597205
:1090F000D506D0B202F003011FD55A78520648D4E3
:10910000E269012184F82B10002A5ED00025216835
:10911000DD712046FFF7C2FC94F82610A26923698E
:10912000E56184F82810226284F82C50B322DA71A9
:1091300001212046FFF7F6FB12E00029E0D10107EC
:109140001BD594F82B20002A48D194F82910B3227B
:10915000002914BF02210321DA712046FFF7E2FB48
:10916000EFF30383103B5BB22A4AC03352F823105B
:109170006FF3104142F8231038BD94F82C20002AD8
:10918000EED04207ECD594F82B200121002AE4D13F
:10919000DBE70029B4D15A785506C2F38011CED549
:1091A00084F82B105A7A216802F0F702496A5A7241
:1091B000082058700A78012A0CBF03220222DA70B4
:1091C0005A7942F001025A71CAE794F82C20002A19
:1091D0009CD194F82B20002AA8D097E7E2696AB1C5
:1091E000002294F82600A169E26184F82800216237
:1091F00084F82C20B322DA710121AEE794F82C20F8
:10920000002AEDD194F82B20002AF3D0E8E700BF24
:109210009C0800200060004010B582B0EFF303848A
:10922000103C164B164964B253F8242050790B5C5D
:1092300003F00303032B0FD0C03451F824306FF335
:10924000104341F82430936823B1D268CDE900205F
:109250006846984702B010BD936823B1D268CDE943
:10926000002068469847064BC03453F824206FF31B
:10927000104243F8242002B010BD00BF9C0800201B
:10928000006000400346D3E902230020536070478A
:10929000D0E90123D26930B4D2E9011444F000448A
:1092A000D0685C61D2E9045440F0004041F00041D4
:1092B0009861196100205D629C6230BC704700BFFC
:1092C000002800DA704710B400F16043114C03F538
:1092D00061430901C9B283F8001344F820200E4904
:1092E00000F1C00200F01F0C400951F8224080003C
:1092F00000F1604000F561406FF31044012341F834
:10930000224003FA0CF3C0F880315DF8044B03608F
:10931000704700BF9C0800200060004070B5836962
:1093200084B004468C46164601AD9BB193E8070015
:1093300085E8070083F804C0E2691A609E60184659
:1093400062699047A3691BB195E8070083E80700AD
:1093500004B070BD2B46EDE790F800C0486EBCF13C
:10936000030F98BF01300AB1824227D310B4019C89
:10937000496BE40754BF01F01F01C1F30441BCF184
:10938000030F09D9090981F0010172B9E9B9022273
:109390005DF8044B5A60704701F00C01A1F1040123
:1093A000B1FA81F14909002AF0D0824201D30029A3
:1093B000EDD103225DF8044B5A607047BCF1030FF6
:1093C00098BF02F1FF321A6070470028DFD0F0E743
:1093D0002DE9F0470B7C0D46012101FA03F2C26032
:1093E000920716BF002201740274D5E9052103F526
:1093F000800303F5F0631B0242610022EE694560C1
:10940000C0E9062184B004468360EFF31080012395
:1094100083F31088854B297C0229D3F8081134BFC7
:109420006FF020076FF040073940C3F80811D3F8F8
:10943000083180F31088A3686F684FF425411960E4
:10944000DA62DA639A642A78297A032A4FEAC151E8
:1094500007F1FF3C00F0D58084BF41EA0241BC46E1
:10946000D6E9068ED9624FF000411961002059619A
:1094700099614FF0FF315862039098620291C3F8EE
:109480001C80C3F820E0D6F82C80C3F868C0C3F86D
:1094900064C0002A40F0A08079080139029140465A
:1094A00001224FF0030C5965996500285DD095F8AD
:1094B00000E0B76A002F71D0B97897F803900906D9
:1094C00041EA097197F8049041EA09419963B96842
:1094D000C3F88C10002965D0012148B997F81C9079
:1094E00097F81BA04FEA496949EA4A2948EA09085E
:1094F000C3F8881040B996F8211096F82000490763
:1095000041EA403148EA01084FF4AA01BEF1010FD7
:10951000196402D10021D9641965E168D960C3F8E2
:109520003480C3F830C01A63697C95F91200224672
:10953000FFF7C6FE96F8221096F924002246FFF7A0
:10954000BFFE96F8231096F925002246FFF7B8FED5
:109550002FB1397897F901002246FFF7B1FE344B5D
:109560002360002004B0BDE8F0873178F9B995F8A0
:1095700000E0B17800299CD0F778BEF1020F4FEAE5
:10958000071141EA87113FD04BD903273943B76A06
:1095900048EA014848F08078002F8DD19F63C3F8D6
:1095A0008870A7E7F968003918BF012195E795F899
:1095B00000E07178BEF1020F4FEA81194FEA0117FE
:1095C00024D029D9032148EA010848EA090848EAD1
:1095D000070848F48078CCE7012A19D00090194692
:1095E000EA68606802ABFFF7B7FEDDE9021002042B
:1095F00042EA006242F0030CA368F06A42F0010202
:1096000051E741F480312BE70927BFE70921DAE769
:1096100040464FF0030C46E7002914BF09210621FC
:10962000D1E7002F14BF09270627AFE7006F0440DA
:109630005450470030B4436893F91220DB69002A84
:1096400011DB51092E4D02F01F0C2031012404FAC8
:109650000CF445F82140BFF34F8FBFF36F8F2949BA
:10966000002441F8224093F92420002A11DB5109FB
:10967000234D02F01F0C2031012404FA0CF445F8AC
:109680002140BFF34F8FBFF36F8F1E49002441F875
:10969000224093F92520002A11DB5109184D02F0D0
:1096A0001F0C2031012404FA0CF445F82140BFF3CB
:1096B0004F8FBFF36F8F1349002441F822409B6AFC
:1096C000A3B193F90130002B10DB03F01F045A09FA
:1096D0000121A14020320A4C44F82210BFF34F8FE1
:1096E000BFF36F8F074A002142F823108268C168D8
:1096F0000023036030BC184691605363704700BF7D
:1097000000E100E09C08002030B4EFF30383103B3D
:109710005BB2184A184C03F1C00152F821006FF3F4
:10972000104042F8210054F82300446894F800C027
:10973000BCF1010F15D1D0E90254AC600024AC6437
:10974000EC642C6552F8215064F3104542F8215026
:109750005A090A4903F01F0360320CFA03F341F877
:109760002230436923B1002230BC1146FFF7D6BD39
:1097700030BC7047006000409C08002000E100E021
:109780001E4B10B4C3600B7803F001034370EFF37A
:10979000108C012484F31088194BD3F8082122F48B
:1097A0008012C3F80821D3F808318CF31088EFF346
:1097B000108C84F310884278D2B9C468237962F39C
:1097C000861323718CF310884A684B78D278C4686A
:1097D000D201DB01D2B2DBB26271A3710123E3716A
:1097E0000A780270074B43605DF8044B0020704715
:1097F000C26813796FF3C7131371E3E700E0054004
:10980000006F044000434144C3684278002023F8BD
:1098100012107047EFF31083012282F31088427810
:10982000C1683AB90A7942F040020A7183F310889C
:10983000002070470A7942F080020A7183F3108891
:1098400000207047EFF31081012383F310884278E2
:1098500042B9C068037962F38613037181F31088FB
:1098600000207047C26813796FF3C713137181F337
:1098700010880020704700BFEFF3108C012383F3A2
:109880001088437873B9C268117963F38611117136
:10989000117A63F3861111728CF3108800234360F0
:1098A00018467047C3681A796FF3C7121A711A7A8B
:1098B0006FF3C7121A72EFE7F0B5076A8BB006466E
:1098C00067B3BE468C46BEE80F006C460FC4BEE8C8
:1098D0000F000FC49EE8030084E80300BCE80F00FB
:1098E0003D460FC5BCE80F000FC59CE803008EE89D
:1098F0000300F36938469847336A6BB1EE469C46DD
:10990000BEE80F00ACE80F00BEE80F00ACE80F00A7
:109910009EE803008CE803000BB0F0BD0F46E8E7BB
:1099200030B58BB0EFF30383103B5BB22E4AC033EC
:1099300052F823106FF3104142F82310EFF3038322
:10994000103B5BB2294A52F8235000212822684676
:1099500006F0B0FF6C6894F84D380020DBB284F854
:109960004D08ADF80430B4F84218C1F30012C9062E
:1099700038D543F02003ADF80430022394F853287F
:1099800084F8533894F8523803F01F03D2B2E11828
:1099900084F8532891F8202860F3820281F8202867
:1099A0002A681268009269466A6A039328460492FC
:1099B000FFF782FFB4F84238DB0611D52B681A692D
:1099C000127D6AB193F91530002B09DB5A0908485A
:1099D00003F01F030121403201FA03F340F8223063
:1099E0000BB030BD1346DBE7006000409C08002050
:1099F00000E100E02DE9F0418AB0EFF30383103B72
:109A00005BB23F4AC03352F823106FF3104142F863
:109A10002310EFF30384103C3A4B66B2002253F854
:109A20002600D0E900E595F8533885F8532895F8D5
:109A3000527807F01F07DBB207F1200285F8533890
:109A4000130104F0FF0455F803C0CCF380718DF8C6
:109A50001910E958DEF810301B7B43EAD17303F08C
:109A600001038DF81830002B46D1CCF38A4305EB67
:109A7000021205939188C1F3030301F00F01082935
:109A80008DF81A3035D908218DF81A1008AA00234C
:109A900005EB071808EB030C01339CF806C202F82B
:109AA00001CB8B42F6D3DEF8003003972F440093AE
:109AB000442387F82038002307934FF48063ADF8E0
:109AC00004306946436A0493FFF7F6FEB5F842385E
:109AD000DB070BD5002E09DB76090B4A04F01F04C7
